:020000040800F2
:1000000028080020ED010008F5010008F7010008AC
:10001000F9010008FB010008FD01000800000000D4
:10002000000000000000000000000000FF010008C8
:100030000102000800000000030200080502000899
:10004000070200080702000807020008070200086C
:10005000070200080702000807020008070200085C
:10006000070200080702000807020008070200084C
:10007000070200080702000807020008070200083C
:10008000070200080702000807020008070200082C
:10009000070200080702000807020008070200081C
:1000A000070200080702000807020008070200080C
:1000B00007020008111A00080702000807020008DA
:1000C00007020008070200080702000807020008EC
:1000D000070200080D1F000839220008A9220008A5
:1000E00007020008070200080702000800000000DD
:1000F0000000000000000000000000000000000000
:1001000000000000000000000702000807020008CD
:10011000070200080702000807020008070200089B
:10012000070200080702000807020008070200088B
:10013000070200080702000807020008070200087B
:10014000070200080702000807020008070200086B
:1001500000F002F800F03AF80AA090E8000C82449F
:100160008344AAF10107DA4501D100F02FF8AFF27C
:10017000090EBAE80F0013F0010F18BFFB1A43F085
:1001800001031847A0480000C0480000103A24BFEF
:1001900078C878C1FAD8520724BF30C830C144BFEC
:1001A00004680C607047000000230024002500262E
:1001B000103A28BF78C1FBD8520728BF30C148BFCA
:1001C0000B6070471FB51FBD10B510BD00F058F88B
:1001D0001146FFF7F7FF03F023FA00F076F803B4B7
:1001E000FFF7F2FF03BC00F07DF8000009488047EC
:1001F00009480047FEE7FEE7FEE7FEE7FEE7FEE709
:10020000FEE7FEE7FEE7FEE704480549054A064B20
:10021000704700005D190008510100082802002005
:100220002808002028040020280400204FF00002A5
:1002300000B5134694469646203922BFA0E80C50DC
:10024000A0E80C50B1F12001BFF4F7AF090728BFB7
:10025000A0E80C5048BF0CC05DF804EB890028BF33
:1002600040F8042B08BF704748BF20F8022B11F05C
:10027000804F18BF00F8012B7047704770477047D8
:10028000754600F02BF8AE4605006946534620F04F
:100290000700854618B020B5FFF7B6FFBDE820403F
:1002A0004FF000064FF000074FF000084FF0000B32
:1002B00021F00701AC46ACE8C009ACE8C009ACE8E5
:1002C000C009ACE8C0098D46704710B50446AFF3CD
:1002D00000802046BDE81040FFF781BF004870470E
:1002E000C801002001491820ABBEFEE7260002002D
:1002F000704721B1826842F00102826003E08268A7
:1003000022F001028260704710B504461248844210
:1003100008D10121401500F0A3FE0021601500F076
:100320009FFE17E00D48844208D10121001500F01E
:1003300097FE0021201500F093FE0BE00848844250
:1003400008D10121C80300F08BFE00214FF40040CA
:1003500000F086FE10BD000000240140002801408E
:10036000003C0140014600208A6802F004020AB104
:10037000012000E0002070470146C86C80B2704741
:100380000246002013680B400BB1012000E0002062
:100390007047014600208A6802F008020AB1012075
:1003A00000E000207047000030B502460020002326
:1003B00050680F4C20400D790C6844EA0524204316
:1003C000506090680B4C2040D1E902542C434D7989
:1003D00044EA450420439060D06A20F470000C7C0D
:1003E000641EE4B2234340EA0350D06230BD0000F3
:1003F000FFFEF0FFFDF7F1FFF0B504460D460020CB
:100400000021092D11DDE068A5F10A0606EB46077B
:10041000072606FA07F18843A5F10A0606EB460609
:1004200003FA06F10843E0600CE0206905EB45079C
:10043000072606FA07F1884305EB450603FA06F19D
:1004400008432061072A0FDA606B561E06EB860709
:100450001F2606FA07F18843561E06EB860605FAA4
:1004600006F10843606322E00D2A0FDA206BD61FE5
:1004700006EB86071F2606FA07F18843D61F06EB10
:10048000860605FA06F10843206310E0E06AA2F14F
:100490000D0606EB86071F2606FA07F18843A2F130
:1004A0000D0606EB860605FA06F10843E062F0BD8C
:1004B000816841F008018160704721B1826842F48F
:1004C000A002826003E0826822F4A002826070478A
:1004D000816841F0040181607047000000B587B079
:1004E00001214FF4047000F0ABFD4FF4004000F028
:1004F0007BFD0220ADF8040000208DF8070001A963
:10050000184800F005FB1848FFF7FEFE0020029097
:1005100001208DF80C008DF80D004FF46020049040
:100520000020059002208DF8180002A90E48FFF760
:100530003BFF01210C48FFF7DCFE0B48FFF7B8FF3B
:1005400000BF0948FFF725FF0028FAD10648FFF74A
:10055000BFFF00BF0448FFF705FF0028FAD107B02E
:1005600000BD0000001001400024014000B587B02C
:1005700001214FF4047000F063FD4FF4004000F0DF
:1005800033FD0820ADF8040000208DF8070001A914
:10059000184800F0BDFA1848FFF7B6FE0020029098
:1005A00001208DF80C008DF80D004FF460200490B0
:1005B0000020059002208DF8180002A90E48FFF7D0
:1005C000F3FE01210C48FFF794FE0B48FFF770FF84
:1005D00000BF0948FFF7DDFE0028FAD10648FFF703
:1005E00077FF00BF0448FFF7BDFE0028FAD107B02F
:1005F00000BD0000001001400024014010B500249F
:1006000000F078F804E0601CC4B2012001F05EF84C
:1006100020210F4800F007FB08B1C82CF3DBC82CE1
:1006200001DB012010BD002404E0601CC4B20120E5
:1006300001F04CF82021064800F0F5FA08B9F02C3A
:10064000F3DBF02C01DB0120ECE70020EAE70000FF
:100650000008014010B5002400F028F804E0601CF8
:10066000C4B2012001F032F880210F4800F0DBFA1B
:1006700008B1C82CF3DBC82C01DB012010BD00241D
:1006800004E0601CC4B2012001F020F8802106487B
:1006900000F0C9FA08B9F02CF3DBF02C01DB0120E3
:1006A000ECE70020EAE70000000C014008B58020DC
:1006B000ADF8000003208DF8020028208DF803001B
:1006C0006946024800F024FA08BD0000000C014011
:1006D00008B58020ADF8000003208DF8020010203E
:1006E0008DF803006946024800F012FA08BD0000C8
:1006F000000C014008B52020ADF8000003208DF863
:10070000020028208DF803006946024800F000FA34
:1007100008BD00000008014008B52020ADF8000029
:1007200003208DF8020010208DF80300694602486E
:1007300000F0EEF908BD0000000801402DE9F05F6F
:1007400000F072F900F044F9FFF758FF18B147F6CE
:10075000FF70BDE8F09FCC2000F07EF9BE2000F0D5
:100760007BF900F013F9834600F010F98146B9F1E6
:10077000070F0ADD6FEA090000F0FF096FEA0B00BE
:1007800000F0FF0B4FF0000A01E04FF0010A4C4669
:10079000200204B204EB0B0004B2204603F05BFE1F
:1007A00007460022104B03F06DFE054603F024FEC1
:1007B00004B20AEB040000F0FF0ABAF1000F08D0FF
:1007C00040F2E240844202DD47F6FE70C1E7204677
:1007D000BFE740F22620844202DD47F6FD70B8E70D
:1007E000604200B2B5E700000000E43F2DE9F05F91
:1007F00000F026F900F002F9FFF72CFF18B147F6D8
:10080000FF70BDE8F09FCC2000F054F9BE2000F04E
:1008100051F900F0CCF8834600F0C9F88146B9F1EF
:10082000070F0ADD6FEA090000F0FF096FEA0B000D
:1008300000F0FF0B4FF0000A01E04FF0010A4C46B8
:10084000200204B204EB0B0004B2204603F003FEC6
:1008500007460022104B03F015FE054603F0CCFDC1
:1008600004B20AEB040000F0FF0ABAF1000F08D04E
:1008700040F2E240844202DD47F6FE70C1E72046C6
:10088000BFE740F22620844202DD47F6FD70B8E75C
:10089000604200B2B5E700000000E43F08B5012166
:1008A000042000F0CDFB2020ADF8000003208DF8DF
:1008B000020010208DF803006946044800F028F972
:1008C00000F086F8FFF79AFE08BD0000000801401E
:1008D00008B50121082000F0B3FB8020ADF800002E
:1008E00003208DF8020010208DF8030069460448AB
:1008F00000F00EF900F082F8FFF7ACFE08BD000032
:10090000000C014010B5FFF707FF20210D4800F053
:1009100093F9022000F0DAFE20210A4800F08EF957
:10092000FFF7E8FE0C2000F0D1FE2021054800F082
:100930007AF908B1012400E00024322000F0C6FE5C
:10094000204610BD0008014010B5FFF7C1FE802110
:100950000D4800F071F9022000F0B8FE80210A482D
:1009600000F06CF9FFF7A2FE0C2000F0AFFE802132
:10097000054800F058F908B1012400E000243220B5
:1009800000F0A4FE204610BD000C014070B500260A
:10099000012508E0FFF7B6FF0446E00140EA6600E3
:1009A000C6B2681CC5B2082DF4DD304670BD70B506
:1009B0000026012508E0FFF7C7FF0446E00140EAF2
:1009C0006600C6B2681CC5B2082DF4DD304670BDA5
:1009D00010B5FFF7A1FE2021074800F02DF940F2E5
:1009E000EE2000F073FE2021034800F027F90F20CD
:1009F00000F06CFE10BD00000008014010B5FFF7CC
:100A000067FE8021074800F017F940F2EE2000F061
:100A10005DFE8021034800F011F90F2000F056FE22
:100A200010BD0000000C014010B5FFF7D1FFFFF72B
:100A3000E5FDCC2000F010F8442000F00DF810BDCA
:100A400010B5FFF7DBFFFFF705FECC2000F032F812
:100A5000442000F02FF810BD70B50446FFF75CFE8F
:100A6000012522E004F00106641076B1202110482F
:100A700000F0E2F8022000F029FE20210C4800F0EE
:100A8000DDF83C2000F022FE0DE02021084800F0B7
:100A9000D3F83C2000F01AFE2021054800F0CEF8E3
:100AA000022000F013FE681CC5B2082DDADD70BD0F
:100AB0000008014070B50446FFF70AFE012522E058
:100AC00004F00106641076B18021104800F0B4F8FB
:100AD000022000F0FBFD80210C4800F0AFF83C2024
:100AE00000F0F4FD0DE08021084800F0A5F83C205E
:100AF00000F0ECFD8021054800F0A0F8022000F095
:100B0000E5FD681CC5B2082DDADD70BD000C0140A2
:100B10002DE9F04102460025002600200023002494
:100B2000002791F803C00CF00F0591F803C00CF0FA
:100B3000100CBCF1000F03D091F802C04CEA05057F
:100B400091F800C0BCF1000F31D0146800202BE0F8
:100B50004FF0010C0CFA00F3B1F800C00CEA0306E8
:100B60009E4220D183004FF00F0C0CFA03F7BC43D8
:100B700005FA03FC4CEA040491F803C0BCF1280F09
:100B800006D14FF0010C0CFA00FCC2F814C00AE0C8
:100B900091F803C0BCF1480F05D14FF0010C0CFADD
:100BA00000FCC2F810C0401C0828D1D31460B1F872
:100BB00000C0BCF1FF0F34DD546800202EE000F1CE
:100BC000080C4FF0010808FA0CF3B1F800C00CEA69
:100BD00003069E4221D183004FF00F0C0CFA03F75D
:100BE000BC4305FA03FC4CEA040491F803C0BCF1D1
:100BF000280F05D100F1080C08FA0CF8C2F814808F
:100C000091F803C0BCF1480F07D100F1080C4FF078
:100C1000010808FA0CF8C2F81080401C0828CED34E
:100C20005460BDE8F0810246002093680B400BB190
:100C3000012000E00020704741617047016170476A
:100C400010B50446072302220B210948FFF7D4FB05
:100C500001210748FFF731FC00BF02210448FFF7DC
:100C60008FFB0028F9D00248FFF786FB10BD00007B
:100C70000024014010B50446072302220D21094833
:100C8000FFF7BAFB01210748FFF717FC00BF02215D
:100C90000448FFF775FB0028F9D00248FFF76CFB0A
:100CA00010BD00000024014070B504460025002658
:100CB00008E00B20FFF7C4FF0544052000F0E0FC2E
:100CC000701CC6B2A642F4DBB5FBF4F080B270BD76
:100CD00070B504460025002608E00D20FFF7CAFF86
:100CE0000544052000F0CCFC701CC6B2A642F4DB23
:100CF000B5FBF4F080B270BD4CF6CC400149086001
:100D000070470000003000404AF6AA200149086000
:100D10007047000000300040014948607047000003
:100D200000300040014988607047000000300040FA
:100D300001490860704700000030004008B51020ED
:100D4000ADF8000003208DF8020010208DF803009C
:100D500069460448FFF7DCFE10210248FFF76EFFEA
:100D600008BD00000010014010B54948007800F0AF
:100D7000F00010280DD14748007850B14448007861
:100D800000F00F0010B900204349086002F0B4FAE7
:100D90007CE03F48007800F0F00020280DD13D486D
:100DA000007850B13A48007800F00F0010B90020E8
:100DB0003949086002F008F968E03548007800F029
:100DC000F00030280AD13248007800F00F0010B946
:100DD00000203149086001F05FFF57E02C4800789F
:100DE00000F0F00040280AD12948007800F00F00F8
:100DF00010B900202849086001F09EFD46E0244813
:100E0000007800F0F00050280AD12148007800F066
:100E10000F0010B900202049086001F0AFFE35E056
:100E20001B48007800F0F00060280AD118480078CC
:100E300000F00F0010B900201749086001F016FEFD
:100E400024E01348007800F0F00070280AD1104820
:100E5000007800F00F0010B900200F49086001F081
:100E60009FFC13E00A48007800F0F00080280AD1C7
:100E70000748007800F00F0010B90020064908600C
:100E800001F0F4FC02E000200149087010BD0000F0
:100E900001000020000000204C00002002490860F2
:100EA0000121024A116070475800002050000020C4
:100EB000024908600121024A116070475C0000206D
:100EC0005400002008B501211C2000F0B9F80220D0
:100ED000ADF8000003208DF8020010208DF803000B
:100EE00069461E48FFF714FE02211C48FFF7A4FEC6
:100EF0000420ADF8000003208DF8020010208DF8CA
:100F0000030069461648FFF703FE04211448FFF763
:100F100093FE4FF48050ADF8000003208DF80200DE
:100F200010208DF8030069460C48FFF7F1FD4FF4DF
:100F300080510A48FFF780FE4020ADF800000320F2
:100F40008DF8020010208DF8030069460448FFF771
:100F5000DFFD40210248FFF76FFE08BD000C014095
:100F60000010014070B5002100230F22C47804B3A3
:100F7000154C246804F4E064C4F5E064210AC1F16E
:100F80000403CA40447804FA03F1847814402143EE
:100F900009010E4C0678A155047804F01F050124C0
:100FA000AC4005786D11AD0005F1E025C5F80041B4
:100FB00009E0047804F01F050124AC40044D0678D4
:100FC000761145F8264070BD0CED00E000E400E02D
:100FD00080E100E002490143024A116070470000CD
:100FE0000000FA050CED00E001460020034A5068BD
:100FF00020F4404008435060704700000010024059
:1010000029B1064A52690243044B5A6104E0034A7B
:1010100052698243014B5A61704700000010024040
:1010200029B1064AD2690243044BDA6104E0034A5B
:10103000D2698243014BDA61704700000010024020
:1010400029B1064A92690243044B9A6104E0034ABB
:1010500092698243014B9A61704700000010024080
:1010600029B1064AD2680243044BDA6004E0034A1D
:10107000D2688243014BDA607047000000100240E2
:101080002DE9F04100210022002500230026002444
:1010900000278C46DFF86081D8F8048008F00C0146
:1010A00021B1042907D0082959D109E0DFF84C8182
:1010B000C0F8008058E0DFF84881C0F8008053E0B5
:1010C000DFF83481D8F8048008F47012DFF8288142
:1010D000D8F8048008F48035920C0D2A01D0921CB7
:1010E00000E0062235B9DFF81C8102FB08F8C0F8E1
:1010F000008033E0DFF80081D8F82C8008F48036D7
:10110000DFF8F480D8F82C8008F00F0808F101040B
:1011100046B9DFF8EC80B8FBF4F808FB02F8C0F839
:1011200000801BE0DFF8D080D8F82C80C8F30318CB
:1011300008F10107DFF8C080D8F82C80C8F3032835
:1011400008F1020CDFF8B880B8FBF7F808FB0CF8E0
:10115000B8FBF4F808FB02F8C0F8008004E0DFF800
:101160009C80C0F8008000BF00BFDFF88C80D8F8FA
:10117000048008F0F0010909DFF88C8018F80130CC
:10118000D0F8008028FA03F8C0F80480DFF86880FF
:10119000D8F8048008F4E061090ADFF86C8018F8D8
:1011A0000130D0F8048028FA03F8C0F80880DFF88E
:1011B0004880D8F8048008F46051C90ADFF84880F4
:1011C00018F80130D0F8048028FA03F8C0F80C8031
:1011D000DFF82480D8F8048008F44041890BDFF858
:1011E0002C8018F80130D0F80C80B8FBF3F8C0F868
:1011F0001080BDE8F08100000010024000127A006B
:1012000040787D0100093D00880000209800002002
:1012100008B501213C20FFF713FF4020ADF8000086
:1012200003208DF8020010208DF8030069467248F3
:10123000FFF76EFC40217048FFF7FEFC8020ADF800
:10124000000003208DF8020010208DF8030069468D
:101250006948FFF75DFC80216748FFF7EDFC04203B
:10126000ADF8000003208DF8020010208DF8030077
:1012700069466248FFF74CFC04216048FFF7DCFC3C
:101280004FF40060ADF8000003208DF8020010203C
:101290008DF8030069465A48FFF73AFC4FF40061A5
:1012A0005748FFF7C9FC4FF48060ADF800000320F9
:1012B0008DF8020010208DF8030069465048FFF7B2
:1012C00027FC4FF480614E48FFF7B6FC4FF40070E6
:1012D000ADF8000003208DF8020014208DF8030003
:1012E00069464648FFF714FC4FF400714348FFF786
:1012F000A3FC2020ADF8000003208DF80200102090
:101300008DF8030069463D48FFF702FC20213B4869
:10131000FFF792FC4FF48040ADF8000003208DF8F9
:10132000020010208DF8030069463448FFF7F0FBF7
:101330004FF480413148FFF77FFC4FF40050ADF887
:10134000000003208DF8020014208DF80300694688
:101350002B48FFF7DDFB4FF400512948FFF76CFCE9
:101360004FF40050ADF8000003208DF80200142067
:101370008DF8030069462148FFF7CAFB4FF400517E
:101380001E48FFF759FC4FF48070ADF800000320B1
:101390008DF8020014208DF8030069461848FFF705
:1013A000B7FB4FF480711648FFF746FC4FF480708E
:1013B000ADF8000003208DF8020014208DF8030022
:1013C00069460D48FFF7A4FB4FF480710A48FFF708
:1013D00033FC0420ADF8000003208DF80200142037
:1013E0008DF8030069460748FFF792FB0421054882
:1013F000FFF722FC08BD000000080140000C01407E
:10140000001001400014014010B586B004460121CF
:101410000420FFF7F5FD01218803FFF711FE4FF4CB
:101420000070ADF8100003208DF8120018208DF820
:10143000130004A91C48FFF76BFB4FF48060ADF864
:10144000100004208DF8130004A91748FFF760FB73
:1014500000940020ADF80400ADF80600ADF80800D7
:101460000C20ADF80A000020ADF80C0069460F48CA
:1014700001F022F825208DF8140001208DF81500C8
:101480008DF816008DF8170005A8FFF76BFD0122F7
:1014900040F22551054800F0EAFF0121034800F021
:1014A000A3FF06B010BD0000000801400038014055
:1014B00010B586B0044601210420FFF7A1FD0121EB
:1014C0004804FFF7ADFD0420ADF8100003208DF8AF
:1014D000120018208DF8130004A91B48FFF718FB11
:1014E0000820ADF8100004208DF8130004A9164858
:1014F000FFF70EFB00940020ADF80400ADF80600E5
:10150000ADF808000C20ADF80A000020ADF80C0082
:1015100069460E4800F0D0FF26208DF81400032005
:101520008DF8160001208DF8170005A8FFF71AFDA9
:10153000012240F22551054800F099FF012103489E
:1015400000F052FF06B010BD00080140004400400A
:101550002DE9F04105460E46002411E042F21077D5
:10156000295D094801F019F800BF4021064800F044
:1015700047FF18B9381EA7F10107F6D1601CC4B2A5
:10158000B442EBDBBDE8F0810048004010B586B006
:10159000044601210820FFF733FD01218804FFF7ED
:1015A0003FFD4FF48060ADF8100003208DF812006D
:1015B00018208DF8130004A91E48FFF7A9FA4FF46C
:1015C0000060ADF8100004208DF8130004A919483C
:1015D000FFF79EFA00940020ADF80400ADF8060075
:1015E000ADF808000C20ADF80A000020ADF80C00A2
:1015F0006946114800F060FF4FF4C060FFF7EAFC55
:1016000027208DF8140000208DF815008DF81600A5
:1016100001208DF8170005A8FFF7A4FC012240F275
:101620002551054800F023FF0121034800F0DCFEAE
:1016300006B010BD000C01400048004010B56FF02E
:10164000040000F077F90A4800680A49B0FBF1F09D
:10165000094908700846007800EB4001C1EBC01052
:101660004FF6FF7101EAC0000449088010BD000078
:10167000D400002000127A00BC000020BE00002030
:101680000146114A12884A434FF0E0235A61002272
:101690009A611A46126942F001021A6100BF4FF0C6
:1016A000E022106900F001021AB100F48032002A31
:1016B000F5D04FF0E022126922F001024FF0E02352
:1016C0001A6100229A617047BE0000200146114A4B
:1016D00012784A434FF0E0235A6100229A611A4679
:1016E000126942F001021A6100BF4FF0E022106956
:1016F00000F001021AB100F48032002AF5D04FF058
:10170000E022126922F001024FF0E0231A61002268
:101710009A617047BC00002008B501210420FFF742
:101720008FFC4FF48050ADF8000003208DF80200CC
:1017300048208DF8030069461C48FFF7E9F910209E
:10174000ADF8000003208DF8020048208DF803005A
:1017500069461748FFF7DCF94FF48070ADF80000D8
:1017600003208DF8020048208DF8030069461148D7
:10177000FFF7CEF90220ADF8000003208DF802003B
:1017800048208DF8030069460948FFF7C1F9012098
:10179000ADF8000003208DF8020048208DF803000A
:1017A00069460248FFF7B4F908BD00000010014087
:1017B00000080140000C014010B500F001F810BD18
:1017C0000CB50020019000903F48006840F4803044
:1017D0003D49086000BF3C48006800F400300090BC
:1017E0000198401C0190009818B90198B0F5A06FBD
:1017F000F1D13548006800F4003010B101200090AC
:1018000001E000200090009801285CD12F4800687A
:1018100040F010002D4908600846006820F00300E1
:1018200008600846006840F00200086026484068EA
:10183000254948600846406848600846406840F4CA
:10184000806048600846C06A214908401E49C86255
:101850000846C06A1F4908431B49C8620846006819
:1018600040F08060086000BF1748006800F000602A
:101870000028F9D01448406820F47C1012494860D0
:101880000846406840F4E81048600846006840F0A8
:101890008070086000BF0C48006800F000700028ED
:1018A000F9D00948406820F003000749486008461D
:1018B000406840F00200486000BF0348406800F004
:1018C0000C000828F9D10CBD001002400020024095
:1018D00000F0FEFF440601001FB54FF4E150ADF8E3
:1018E00000000020ADF80600ADF802006320ADF85E
:1018F000040000208DF8080001210220FFF790FB72
:1019000069460B4800F0CEF80121094800F0B5F80F
:101910001D208DF80C0001208DF80F0003A8FFF7A3
:1019200021FB01221146024800F0B3F81FBD000060
:1019300000040040042808D14FF0E021096941F07B
:1019400004014FF0E022116107E04FF0E021096946
:1019500021F004014FF0E0221161704710B51648E4
:10196000006840F0010014490860084640681349C7
:1019700008401149486008460068114908400E496E
:1019800008600846006820F4802008600846406827
:1019900020F4FE0048600846006820F0A05008606F
:1019A0004FF47F0088600020C862FFF705FF4FF00A
:1019B00000600449086010BD001002400000FFF004
:1019C000FFFFF6FE08ED00E010B5FFF737FEFFF76A
:1019D0001FFCFFF7B3F9FFF79FFE00F06BF9FFF76D
:1019E0007BFF4FF4E130FFF7D1FD4FF46130FFF79B
:1019F0005FFD4FF4E130FFF707FDFEF74FFFFEF705
:101A000067FFFEF7B3FDFEF769FDFFF75BFA10BD58
:101A100010B500F099F811480068401C0F490860A3
:101A20000F480068401C0E4908600E480068401CC2
:101A30000C4908600C480068401C0B4908600846C7
:101A40000068B0F5FA7F04DD002008490860064907
:101A500008600121064800F00DF810BDA800002024
:101A6000AC000020B0000020B8000020CA00002018
:101A700000040040CA430282704721B1028842F04C
:101A80000102028004E002884FF6FE731A400280D1
:101A900070471AB183890B43838102E083898B43AA
:101AA00083817047002202881D4B98420ED01D4B47
:101AB00098420BD0B0F1804F08D01B4B984205D014
:101AC0001A4B984202D01A4B984204D14FF68F73AA
:101AD0001A404B881A43174B984207D0164B98422E
:101AE00004D04FF6FF431A40CB881A4302808B88FC
:101AF00083850B8803850A4B98420BD0094B98428B
:101B000008D00E4B984205D00D4B984202D00D4B99
:101B1000984201D10B7A038601238382704700002B
:101B2000002C014000340140000400400008004047
:101B3000000C004000100040001400400040014034
:101B4000004401400048014010B5274800780028B3
:101B500048D126480078002844D12548007800283C
:101B600040D12448007800283CD123480078002840
:101B700038D122480078A8BB2148007890BB214882
:101B8000007878BB4FF480511F48FFF74CF8F0B154
:101B900080211E48FFF747F8C8B110211C48FFF705
:101BA00042F8A0B140211A48FFF73DF878B14FF450
:101BB00000411548FFF737F848B101211448FFF7F5
:101BC00032F820B120211148FFF72DF850B9114803
:101BD0000078401C0F49087008460078C82801DBCF
:101BE000C820087010BD00009E0000209F0000204B
:101BF000A0000020A1000020A2000020A3000020DF
:101C0000A4000020A50000200008014000100140B1
:101C1000000C01409D00002010B5FE242021224828
:101C2000FFF701F808B144F001046006040E012139
:101C30001E48FEF7F8FF08B144F001046006040EE8
:101C40004FF400411A48FEF7EEFF08B144F00104DA
:101C50006006040E40211548FEF7E5FF08B144F088
:101C600001046006040E10211048FEF7DCFF08B1E5
:101C700044F001046006040E80210B48FEF7D3FFF8
:101C800008B144F001046006040E4FF48051084886
:101C9000FEF7C9FF08B144F001046006040E44F0E9
:101CA0000104204610BD000000100140000C01405E
:101CB0000008014008B501210420FFF7C1F9012106
:101CC0001020FFF7BDF901210820FFF7B9F94FF403
:101CD0008050ADF8000003208DF8020048208DF8F8
:101CE000030069462948FEF713FF8020ADF8000085
:101CF00003208DF8020048208DF80300694624482F
:101D0000FEF706FF1020ADF8000003208DF802005A
:101D100048208DF8030069461E48FEF7F9FE402072
:101D2000ADF8000003208DF8020048208DF8030074
:101D300069461848FEF7ECFE4FF40040ADF800008D
:101D400003208DF8020048208DF8030069460F48F3
:101D5000FEF7DEFE0120ADF8000003208DF8020042
:101D600048208DF8030069460A48FEF7D1FE20207E
:101D7000ADF8000003208DF8020048208DF8030024
:101D800069460348FEF7C4FE08BD00000008014094
:101D900000100140000C014010B5FFF73DFF044664
:101DA000FF2C73D14F480078EF2842D008DC0F2871
:101DB0007ED07F286DD0BF2859D0DF280BD147E0D7
:101DC000F72827D0FB2816D0FD2805D0FF287ED184
:101DD0000020454908707AE043480078022806DD73
:101DE00041480078322802DC012040490870002078
:101DF0003D4908706BE03C480078022806DD3A480F
:101E00000078322802DC0120394908700020364968
:101E100008705CE034480078022806DD324800781B
:101E2000322802DC01203349087000202E49087056
:101E30004DE02D480078022806DD2B480078322836
:101E400002DC01202C4908700020274908703EE080
:101E500025480078022806DD23480078322802DC75
:101E600001202649087000201F4908702FE01E48F5
:101E70000078022806DD1C480078322802DC0120A8
:101E80001F49087000201849087020E020E00FE08A
:101E9000FFE715480078022806DD1348007832284D
:101EA00002DC01201749087000200F4908700EE07D
:101EB0000D480078022806DD0B480078322802DC45
:101EC00001201149087000200749087000BF08E090
:101ED00004480078A04204D002480470002002495F
:101EE000087010BD9C0000209D0000209E00002076
:101EF0009F000020A0000020A1000020A2000020E0
:101F0000A3000020A4000020A50000202DE9F04738
:101F100040F22551B94800F080FA00287DD0B7483A
:101F200000F036FBB649B74A12788854B5480078B5
:101F300028B908460078552801D0BDE8F087B14897
:101F40000078401CAF490870084600780B2864D11F
:101F500000200870AA484078512804D0522865D043
:101F6000532862D1C3E0A6498978A54AD27841EACC
:101F7000022108B202F06FFA80460022A24B02F062
:101F8000E3F806460022A14B02F07CFA044602F078
:101F900001F89F4908609A490979994A527941EABA
:101FA000022108B202F057FA80460022964B02F056
:101FB000CBF806460022954B02F064FA044601F085
:101FC000E9FF934948608E4989798D4AD27941EA7F
:101FD000022108B202F03FFA804600228A4B02F04A
:101FE000B3F806460022894B02F04CFA044601F091
:101FF000D1FF874988608249097A814A527A41EA49
:10200000022108B202F027FA80460022814B02F03A
:102010009BF806460022804B00E0ECE001F0ECFF6C
:10202000044601F0B7FF7D490860E3E07449897810
:10203000734AD27841EA022108B202F00CFA8046D3
:102040000022714B02F080F806460022744B02F029
:1020500019FA044601F09EFF72490860684909793F
:10206000674A527941EA022108B202F0F4F9804647
:102070000022654B02F068F806460022684B02F029
:1020800001FA044601F086FF664948605C49897997
:102090005B4AD27941EA022108B202F0DCF9064635
:1020A0000022594B02F050F8044600225C4B02F02B
:1020B000E9F9804601F06EFF5A4988605049097A73
:1020C0004F4A527A41EA022108B202F0C4F980462E
:1020D0000022504B02F038F8064600224E4B01F029
:1020E0008BFF044601F056FF4C49086082E04449EA
:1020F0008978434AD27841EA022108B202F0ABF96A
:1021000006460022404B02F01FF804460022464BD0
:1021100002F0B8F9804601F03DFF444908603849B3
:102120000979374A527941EA022108B202F093F95B
:1021300080460022344B02F007F8064600223A4B54
:1021400002F0A0F9044601F025FF384948602C4907
:1021500089792B4AD27941EA022108B202F07BF94F
:1021600006460022284B01F0EFFF044600222E4BCA
:1021700002F088F9804601F00DFF2C498860204963
:10218000097A1F4A527A41EA022108B202F063F941
:10219000064600221F4B01F0D7FF044600221E4BCB
:1021A00001F02AFF804601F0F5FE1C490860204935
:1021B000097B484202F05AFB04461C48416820460D
:1021C00002F0FFFB03D201201A49086011E0184910
:1021D000487B02F063FB044614484168204602F045
:1021E00071FB03D202201349086002E0002011496C
:1021F000086000BF00BF00BF9FE60000003801403C
:10220000E8000020C00000200000E0400000304056
:10221000F40000200040754000204240C40000202F
:1022200000409F4000010020008066400C0100201B
:10223000B8010020D000002010B540F2255116480A
:1022400000F0EBF830B3144800F0A2F91349144A37
:10225000127888541248007820B908460078F0288F
:1022600000D010BD0E480078401C0D49087008468B
:10227000007807280ED10846007820B90748407832
:10228000F02800D0EDE700200549087003484079A8
:102290000449087000BFE4E7004400401801002032
:1022A000C80000204400002070B540F22551454888
:1022B00000F0B3F8002877D0424800F069F9C5B2C1
:1022C00000204149086041480088401C802802DD08
:1022D00000203E4908803E483C49098845543B4817
:1022E0000088401C39490880FA2D69D100BF394B5C
:1022F000394A36480188364801F011FD0446354810
:102300000078002847D000202F49086032484068F4
:102310000078A02820D008DC90280DD091280FD07C
:10232000922811D0932835D112E0A1281ED0A228DE
:102330001FD0A3282ED129E00020FEF7AFFD29E011
:102340000120FEF7ABFD25E00020FEF7B1FD21E006
:102350000120FEF7ADFD1DE01F484068407808B140
:10236000012000E000201D49087013E001F0CCFDC1
:1023700010E000201A4900BF05E0174A5368421CCC
:102380009A5C0A54401C0E28F7D303E0002015493C
:10239000086000BF00BF002C11DD0C490988091B33
:1023A0000A4A1180002005E00BE02118084A515C20
:1023B0001154401C054909888842F6DB97E700BFA5
:1023C00000BF70BD00480040B8000020CA000020D7
:1023D00024010020CC000020A401002000000020E7
:1023E000B80100204800002021B1828942F4005247
:1023F000828104E082894DF6FF731A408281704722
:1024000002460020B1F5007F00D100BF13880B40C9
:102410000BB1012000E00020704770B50246002497
:1024200000230025002040F66A16B14200D100BF0B
:10243000C1F3421501F01F03012606FA03F3012D33
:1024400002D19689334006E0022D02D1168A33402C
:1024500001E0968A33400C12012606FA04F416882D
:10246000344013B10CB1012000E0002070BDF0B584
:102470000346002400260025002040F66A17B942D2
:1024800000D100BF1846C1F3421401F01F06012716
:1024900007FA06F5012C01D10C3004E0022C01D121
:1024A000103000E014301AB107682F43076002E0D3
:1024B0000768AF430760F0BD2DE9F04786B00546D9
:1024C0000E460024A24600BFA1460027B08900B1F5
:1024D00000BF2F462C8A4CF6FF700440F08804435E
:1024E0002C82AC894EF6F3100440B0883189084341
:1024F000718908430443AC81AC8A4FF6FF40044025
:10250000B0890443AC8201A8FEF7BAFD1F48874298
:1025100002D1DDF810A001E0DDF80CA0A88900F4DC
:10252000004040B10AEBCA0000EB0A1031684900D4
:10253000B0FBF1F807E00AEBCA0000EB0A103168C3
:102540008900B0FBF1F86420B8FBF0F00401200929
:10255000642101FB1089A88900F4004040B13220B9
:1025600000EBC900B0FBF1F000F00700044308E005
:10257000322000EB09106421B0FBF1F000F00F00F5
:1025800004432C8106B0BDE8F0870000003801400C
:1025900001468888C0F308007047C1F308028280B2
:1025A0007047000010B54FF400511D48FEF746FB80
:1025B00080211C48FEF742FB04211B48FEF73EFB2E
:1025C0004FF480711948FEF739FB4FF480711548BC
:1025D000FEF734FB4FF400511448FEF72FFB0421A3
:1025E0000F48FEF72BFB4FF480410D48FEF726FB0A
:1025F0004FF400710A48FEF721FB4FF400610B48CD
:10260000FEF71CFB40210748FEF718FB2021044879
:10261000FEF714FB4FF480610448FEF70FFB10BD7A
:10262000000C01400008014000140140001001406E
:1026300030B585B004460020029003900490002538
:102640000090019001208DF80000E0B28DF80100AB
:1026500002AA6946022001F03DFB0546E9B202A844
:10266000FEF776FF05B030BD10B594B0342107A851
:10267000FDF7DCFD182101A8FDF7D8FD002400209E
:102680008DF804002A4800788DF805002948007864
:102690008DF80600284800788DF807002748007854
:1026A0008DF80800264800788DF809002548007844
:1026B0008DF80A0000208DF80B00234800788DF873
:1026C0000C0021480088000A8DF80D001F48007892
:1026D0008DF80E001D480088000A8DF80F001C4878
:1026E00000788DF810001A48008800128DF811004B
:1026F000184800788DF812001648008800128DF8EE
:102700001300154800788DF81400144800788DF8EF
:10271000150007AA01A9122001F0DCFA0446E1B273
:1027200007A8FEF715FF00200649087014B010BD79
:10273000000000200100002045000020460000208D
:102740004700002044000020140000201600002054
:10275000380000203A000020180000201C00002053
:1027600070B590B004460D46342103A8FDF75EFD18
:10277000002600200190029002208DF804008DF8C0
:102780000540E8B28DF8060003AA01A9032001F074
:10279000A1FA0646F1B203A8FEF7DAFE10B070BD4A
:1027A00010B52E48006820B1012815D0022846D166
:1027B00036E001217020FFF7D3FF00202849086090
:1027C00026480068401C254908600846007840F00B
:1027D00070002449087000BF21480068B0F5FA7FF6
:1027E0000EDD00201E4908601C480068401C1B4983
:1027F00008600846007840F070001A4908700EE042
:102800001948006830B9002016490870144908605A
:10281000FFF7C8FE12480068401C114908601AE022
:1028200000200F4908600D480068401C0B490860F3
:102830000846007840F070000A4908700BE000215B
:102840007020FFF78DFFFFF7ADFE002005490870EF
:102850000249086000BF00BF10BD00004C0000200E
:1028600078000020010000204800002010B52E480C
:10287000006820B1012815D0022846D136E0012198
:102880008020FFF76DFF0020284908602648006877
:10289000401C254908600846007840F08000244923
:1028A000087000BF21480068B0F5FA7F0EDD0020F7
:1028B0001E4908601C480068401C1B490860084607
:1028C000007840F080001A4908700EE0194800684E
:1028D00030B900201649087014490860FFF762FEFD
:1028E00012480068401C114908601AE000200F4996
:1028F00008600D480068401C0B49086008460078D5
:1029000040F080000A4908700BE000218020FFF7AA
:1029100027FFFFF747FE00200549087002490860BD
:1029200000BF00BF10BD00004C0000207C00002054
:10293000010000204800002010B548480068052824
:102940007ED2DFE800F003163A496D0001214020F5
:10295000FFF706FF00204249086040480068401C1D
:102960003E4908600846007840F040003D49087044
:1029700000BF3B480068B0F5FA7F0EDD0020384903
:10298000086036480068401C3449086008460078F2
:1029900040F04000334908700EE03348006830B919
:1029A0000020304908702E490860FFF7FBFD2C48D5
:1029B0000068401C2A4908604EE000202849086051
:1029C00026480068401C254908600846007840F009
:1029D0004000244908703FE021480068B0F5FA7FC4
:1029E0000EDD00201E4908601C480068401C1B4981
:1029F00008600846007840F040001A4908700EE070
:102A00001948006830B90020164908701449086058
:102A1000FFF7C8FD12480068401C114908601BE020
:102A200000200F4908600D480068401C0B490860F1
:102A30000846007840F040000A4908700CE0FFE7C3
:102A400000214020FFF78CFEFFF7ACFD0020054978
:102A500008700249086000BF00BF10BD4C00002094
:102A60006C000020010000204800002010B53D4807
:102A7000006820B1012824D0022864D145E001215A
:102A80006020FFF76DFE0020374908603548006878
:102A9000401C344908600846007840F06000334923
:102AA00008704FF400713248FEF7C6F84FF4006129
:102AB0003048FEF7C1F84FF480612E48FEF7BCF8AD
:102AC00000BF29480068B0F5FA7F0EDD00202649D6
:102AD000086024480068401C2249086008460078C5
:102AE00040F06000214908700EE02348006830B9CA
:102AF00000201E4908701C490860FFF753FD1A4862
:102B00000068401C1849086029E04FF4007118481B
:102B1000FEF794F84FF400611648FEF78FF84FF473
:102B200080611448FEF78AF800200F4908600D48BC
:102B30000068401C0B4908600846007840F06000BF
:102B40000A4908700BE000216020FFF709FEFFF73B
:102B500029FD0020054908700249086000BF00BF38
:102B600010BD00004C000020740000200100002077
:102B7000000C0140001001404800002010B53F4803
:102B8000006820B1012827D0022869D148E001213E
:102B90005020FFF7E5FD00203949086037480068FC
:102BA000401C364908600846007840F0500035491E
:102BB00008704FF480713448FEF73EF84FF400512E
:102BC0003248FEF739F84FF400613048FEF734F828
:102BD00001202F49086000BF29480068B0F5FA7F3E
:102BE0000EDD00202649086024480068401C234967
:102BF00008600846007840F05000224908700EE056
:102C00002448006830B900201E4908701C4908603B
:102C1000FFF7C8FC1A480068401C194908602BE0FF
:102C20004FF480711848FEF709F84FF40051174827
:102C3000FEF704F84FF400611448FDF7FFFF002091
:102C4000134908600E4908600C480068401C0B4995
:102C500008600846007840F050000A4908700BE010
:102C600000215020FFF77CFDFFF79CFC0020054968
:102C700008700249086000BF00BF10BD4C00002072
:102C800070000020010000200008014000100140F9
:102C9000040000204800002010B5C24800680B283E
:102CA0006FD2DFE800F00619435A7F97BED6FDFBCE
:102CB000FA0001213020FFF753FD0020BA490860D7
:102CC000B8480068401CB74908600846007840F0E2
:102CD0003000B649087000BFB5480078322148433B
:102CE000C0EB0010B0490968B1EB800F0EDD002089
:102CF000AD490860AB480068401CAA490860084616
:102D0000007840F03000A94908700EE0A94800683A
:102D100030B90020A5490870A3490860FFF742FCBC
:102D2000A1480068401CA049086038E10421A2487D
:102D3000FDF782FF2021A048FDF77EFF00209A4981
:102D4000086098480068401C96490860084600786A
:102D500040F030009549087021E193480068B0F5D3
:102D6000FA7F0FDD0020904908608E480068401C03
:102D70008C4908600846007840F030008B490870A4
:102D80000FE000E18B48006830B9002087490870E7
:102D900085490860FFF706FC83480068401C8249AB
:102DA0000860FCE080218548FDF746FF4FF4804134
:102DB0008148FDF741FF00207B49086079480068A1
:102DC000401C784908600846007840F03000774998
:102DD0000870E4E0764880783221484372490968F7
:102DE00088420EDA0020704908606E480068401C76
:102DF0006C4908600846007840F030006B49087064
:102E00000EE06C48006830B90020684908706649D7
:102E10000860FFF7C7FB64480068401C624908600F
:102E2000BDE080216548FDF709FF4FF4804162480D
:102E3000FDF704FF00205C4908605A480068401C08
:102E4000584908600846007840F03000574908703B
:102E5000A5E055480068B0F5FA7F0EDD0020524924
:102E6000086050480068401C4E49086008460078D9
:102E700040F030004D4908700EE04E48006830B90F
:102E800000204A49087048490860FFF78BFB464814
:102E90000068401C4449086081E054E029E0FFE7F5
:102EA00004214548FDF7CAFE20214348FDF7C6FE30
:102EB0004FF480714148FDF7BFFE4FF40051404888
:102EC000FDF7BAFE4FF400613D48FDF7B5FE012065
:102ED0003C49086000203449086032480068401CC2
:102EE000304908600846007840F030002F490870EB
:102EF00055E02F48007932214843C0EB00102A49A1
:102F00000968B1EB800F0EDD0020274908602548D5
:102F10000068401C234908600846007840F03000F3
:102F2000224908700EE02348006830B900201F498C
:102F300008701D490860FFF735FB1B480068401CFE
:102F4000194908602BE04FF480711C48FDF776FEAC
:102F50004FF400511A48FDF771FE4FF40061184814
:102F6000FDF76CFE0020174908600F4908600D4806
:102F70000068401C0B4908600846007840F03000AB
:102F80000A4908700BE000213020FFF7E9FBFFF74A
:102F900009FB0020054908700249086000BF00BF16
:102FA00010BD00004C00002068000020010000203F
:102FB000B801002048000020000C0140000801403A
:102FC000001001400400002010B5C24800680B2822
:102FD0006FD2DFE800F00619435A7F97BED6FDFB9B
:102FE000FA0001212020FFF7BBFB0020BA4908604E
:102FF000B8480068401CB74908600846007840F0AF
:103000002000B649087000BFB54800783221484317
:10301000C0EB0010B0490968B1EB800F0EDD002055
:10302000AD490860AB480068401CAA4908600846E2
:10303000007840F02000A94908700EE0A948006817
:1030400030B90020A5490870A3490860FFF7AAFA23
:10305000A1480068401CA049086038E10421A2484A
:10306000FDF7EAFD2021A048FDF7E6FD00209A4982
:10307000086098480068401C964908600846007837
:1030800040F020009549087021E193480068B0F5B0
:10309000FA7F0FDD0020904908608E480068401CD0
:1030A0008C4908600846007840F020008B49087081
:1030B0000FE000E18B48006830B9002087490870B4
:1030C00085490860FFF76EFA83480068401C824912
:1030D0000860FCE080218548FDF7AEFD4FF480419B
:1030E0008148FDF7A9FD00207B4908607948006808
:1030F000401C784908600846007840F02000774975
:103100000870E4E0764880783221484372490968C3
:1031100088420EDA0020704908606E480068401C42
:103120006C4908600846007840F020006B49087040
:103130000EE06C48006830B90020684908706649A4
:103140000860FFF72FFA64480068401C6249086075
:10315000BDE080216548FDF771FD4FF48041624874
:10316000FDF76CFD00205C4908605A480068401C6F
:10317000584908600846007840F020005749087018
:10318000A5E055480068B0F5FA7F0EDD00205249F1
:10319000086050480068401C4E49086008460078A6
:1031A00040F020004D4908700EE04E48006830B9EC
:1031B00000204A49087048490860FFF7F3F946487B
:1031C0000068401C4449086081E054E029E0FFE7C2
:1031D00004214548FDF732FD20214348FDF72EFD2F
:1031E0004FF480714148FDF727FD4FF400514048EE
:1031F000FDF722FD4FF400613D48FDF71DFD012064
:103200003C49086000203449086032480068401C8E
:10321000304908600846007840F020002F490870C7
:1032200055E02F48007932214843C0EB00102A496D
:103230000968B1EB800F0EDD0020274908602548A2
:103240000068401C234908600846007840F02000D0
:10325000224908700EE02348006830B900201F4959
:1032600008701D490860FFF79DF91B480068401C65
:10327000194908602BE04FF480711C48FDF7DEFC13
:103280004FF400511A48FDF7D9FC4FF4006118487B
:10329000FDF7D4FC0020174908600F4908600D486D
:1032A0000068401C0B4908600846007840F0200088
:1032B0000A4908700BE000212020FFF751FAFFF7C0
:1032C00071F90020054908700249086000BF00BF7D
:1032D00010BD00004C000020640000200100002010
:1032E000B801002048000020000C01400008014007
:1032F000001001400400002010B5C04800680B28F1
:103300007CD2DFE800F0061940577C95BCD5FCFA6A
:10331000F90001211020FFF723FA0020B8490860C6
:10332000B6480068401CB54908600846007840F07F
:103330001000B449087000BFB348407832214843B8
:10334000AF49096888420EDA0020AD490860AB48F1
:103350000068401CA94908600846007840F0100049
:10336000A84908700EE0A948006830B90020A549B6
:103370000870A3490860FFF715F9A1480068401CD0
:103380009F49086037E10421A148FDF755FC202141
:103390009F48FDF751FC0020994908609748006854
:1033A000401C964908600846007840F01000954996
:1033B000087020E192480068B0F5FA7F0EDD002029
:1033C0008F4908608D480068401C8C490860084699
:1033D000007840F010008B4908700EE08B480068C0
:1033E00030B900208749087085490860FFF7DAF88E
:1033F00083480068401C82490860FCE0EFE04FF41D
:1034000000518348FDF718FC4FF480418048FDF7D8
:1034100013FC00207A49086078480068401C77490E
:1034200008600846007840F0100076490870E2E035
:103430007548C078322148437149096888420EDADC
:1034400000206F4908606D480068401C6B490860A7
:103450000846007840F010006A4908700EE06B489A
:10346000006830B900206749087065490860FFF7B7
:1034700099F863480068401C61490860BBE04FF45C
:1034800000516348FDF7DAFB4FF480416048FDF7D7
:10349000D5FB00205A49086058480068401C57492D
:1034A00008600846007840F0100056490870A2E015
:1034B00053480068B0F5FA7F0EDD002050490860DF
:1034C0004E480068401C4D4908600846007840F0AE
:1034D00010004C4908700EE04C48006830B90020DC
:1034E0004849087046490860FFF75CF8444800689E
:1034F000401C434908607EE051E029E0FFE70421D9
:103500004348FDF79BFB20214148FDF797FB4FF413
:1035100080714048FDF790FB4FF400513E48FDF7A5
:103520008BFB4FF400613C48FDF786FB01203B49D3
:10353000086000203249086030480068401C2F496C
:1035400008600846007840F010002E49087052E0EC
:103550002D484079322148432949096888420EDACA
:1035600000202749086025480068401C234908605E
:103570000846007840F01000224908700EE0234809
:10358000006830B900201F4908701D490860FFF726
:1035900009F81B480068401C194908602BE04FF4EB
:1035A00080711C48FDF74AFB4FF400511A48FDF7A3
:1035B00045FB4FF400611848FDF740FB0020174918
:1035C00008600F4908600D480068401C0B490860FE
:1035D0000846007840F010000A4908700BE000210E
:1035E0001020FFF7BDF8FEF7DDFF00200549087049
:1035F0000249086000BF00BF10BD00004C00002061
:103600006000002001000020B801002048000020D8
:10361000000C01400008014000100140040000209F
:10362000FEF7D2F900F09CFCFEF7BCFF4021F84801
:10363000FDF702FB8021F648FDF7FEFA0421F5486C
:10364000FDF7FAFA4FF40061F348FDF7F5FA4FF48D
:103650008061F148FDF7F0FA4FF40071ED48FDF795
:10366000EBFA2021EB48FDF7E7FA4FF48041E948F7
:10367000FDF7E2FA4FF40051E748FDF7DDFA4FF4A9
:103680000051E448FDF7D8FA4FF48071E248FDF7A5
:10369000D3FA4FF48071DE48FDF7CEFA0421DF48FB
:1036A000FDF7CAFA0120DE4908700A2048701E2082
:1036B00088700A20C87002200871012048710A2011
:1036C0008871C8710F2008724872282088723220D1
:1036D000C8721E20087348731021CF48FDF7ACFA5A
:1036E0001021CD48FDF7AAFAC9E200F035FC00F040
:1036F00069FB00F0B7FBFEF74FFBCA48007870B1DA
:10370000C948007858B90120FEF792FF3020C64919
:1037100008700120C54908600020C2490870C448EB
:10372000007870B1C048007858B90220FEF780FFD9
:103730004020BD4908700120BC4908600020BC49F8
:103740000870BC48007870B1B748007858B90320B9
:10375000FEF76EFF5020B44908700120B34908609D
:103760000020B4490870B448007870B1AE480078C1
:1037700058B90420FEF75CFF6020AB4908700120B7
:10378000AA4908600020AC490870AC48007870B1C4
:10379000A548007858B90520FEF74AFF7020A249D5
:1037A00008700120A14908600020A4490870A448BD
:1037B000007870B19C48007858B90620FEF738FFB1
:1037C00080209949087001209849086000209C4990
:1037D00008709C48007840B19348007828B90720C9
:1037E000FEF726FF00209749087001218A48FDF75F
:1037F0001AFA08B9012000E00020E0B19248006800
:10380000401C9149086008460068B0F5FA6F15DD64
:103810008548007858B98D48007840B15020FEF7AF
:1038200007FF1020804908700120804908600020AF
:103830008549086002E0002083490860022174483D
:10384000FDF7F1F908B9012000E00020E0B180485F
:103850000068401C7E49086008460068B0F5FA6FB1
:1038600015DD7148007858B97848007840B151208A
:10387000FEF7DEFE20206C49087001206B490860CD
:1038800000207349086002E0002071490860714817
:1038900000780A287EDB7048006820B1012803D038
:1038A000022803D101E001E000E000BF00BFFCF707
:1038B00045FF6A4908800846B0F90000B0F5FA6F84
:1038C00043DA0846B0F9000010F1C80F3DDD0846A4
:1038D000B0F900006249B1F90010401A614908606E
:1038E0000846006814282ADA0846006810F1140F08
:1038F00025DD00205C4908605848B0F90000B0F5AB
:10390000167F01DD012008604548807A00EB8000C9
:103910005249B1F90010B1EB400F04DA40213C48A4
:10392000FDF78AF903E040213948FDF787F94B4854
:10393000B0F900004D49088000204D490860474813
:10394000B0F90000464908800CE049480068401C76
:1039500047490860084600680A2803DD40212C48D2
:10396000FDF76CF9FCF742FF424908800846B0F9C0
:103970000000B0F5FA6F4ADA0846B0F9000010F11D
:10398000C80F44DD0846B0F900003B49B1F900100A
:10399000401A00E062E133490860084600681428D4
:1039A0002FDA0846006810F1140F2ADD0020334991
:1039B00008603048B0F90000B0F5167F01DD012045
:1039C00008602F48006878B11548C07A00EB800085
:1039D0002849B1F90010B1EB400F05DA4FF400515E
:1039E0000D48FDF729F904E04FF400510A48FDF7AE
:1039F00025F92048B0F9000022490880002022491A
:103A000008601C48B0F900001B4908804CE03DE00C
:103A100000080140000C014000100140001401406A
:103A2000B80100209E000020010000204800002076
:103A30009F000020A0000020A1000020A200002084
:103A4000A3000020A400002040000020000000206F
:103A50003C000020A8000020D00000200E00002024
:103A60000C00002008000020180000201400002096
:103A70002000002012000020100000201C00002068
:103A80000400002016000020240000207C4800686C
:103A9000401C7B490860084600680A2804DD4FF492
:103AA00000517848FDF7CAF80A20FDF711F9764968
:103AB00008800846008875490988401A74490860DA
:103AC000084600683C282CDA0846006810F13C0FD4
:103AD00027DD7048007A00EBC00101EB00106A4955
:103AE0000988B1EB800F0ADA4FF480716548FDF761
:103AF000A3F84FF400616348FDF79EF809E04FF426
:103B000080716048FDF79AF84FF400615D48FDF759
:103B100095F85D4800886049088000205F4908608A
:103B200012E05E480068401C5C4908600846006876
:103B30000A2809DD4FF480715248FDF77FF84FF4F1
:103B400000615048FDF77AF84F4800884F490880D7
:103B50000A20FDF7A9F85249088008460088514913
:103B60000988401A4A490860084600683C282ADA51
:103B70000846006810F13C0F25DD4648407A00EB0E
:103B8000C00101EB001046490988B1EB800F09DA4A
:103B900004214548FDF750F84FF400613948FDF71E
:103BA0004BF808E004214048FDF748F84FF4006165
:103BB0003448FDF743F83A4800883C490880002023
:103BC0003B49086011E03A480068401C38490860E9
:103BD000084600680A2808DD04213348FDF72EF85E
:103BE0004FF400612748FDF729F82D4800882D493A
:103BF00008804FF480512348FDF715F808B90120DB
:103C000000E0002018B101202A49087002E00020DD
:103C10002849087010212848FDF705F808B101204F
:103C200000E0002018B101202449087002E00020C3
:103C3000224908704FF480712148FCF7F4FF08B95D
:103C4000012000E0002018B101201E49087002E0A8
:103C500000201C49087000201B4908701B48007890
:103C6000C82804DDFEF700FD002018490870184838
:103C7000006820B1FDF778F800201549086034E5A8
:103C800024000020001001403200002030000020FD
:103C900008000020B8010020380000202C0000207F
:103CA0003600002034000020001401403A000020BB
:103CB00028000020450000200008014046000020A8
:103CC000000C014047000020A8000020AC000020AC
:103CD000B000002030B503460D46002100240BB98A
:103CE000002030BDAF205054491CFF2B02DA535442
:103CF000491C07E0FF205054491C5354491C002024
:103D00005054491C002403E0285D5054491C641C95
:103D10009C42F9DBFA205054491C0846E1E7F0B513
:103D200004460D460021002600201870032D00DAFD
:103D3000F0BD002106E0605CAF2802D16018D060C1
:103D400002E0491CA942F6DB00BF002901DD08465C
:103D5000EEE7AF201070491C605CFF2809D1481CB9
:103D6000275C881C205C47EA00205080C91C05267F
:103D700003E0605C5080491C0326508808B901208C
:103D8000D6E750883044A84201DD0020D0E75088B3
:103D9000002804DD601850605088014401E00020D4
:103DA0005060605CFA2801D00120C1E7FA2010724F
:103DB000491C6018D768C01B1061012018700846A4
:103DC000B6E7000010B522480068012802D002289A
:103DD00032D11CE000201F4908601D480068401CCB
:103DE0001B4908601C48006840B102211B48FCF7D1
:103DF00025FF04211A48FCF71FFF07E0022117489E
:103E0000FCF71AFF04211648FCF718FF00BF114801
:103E1000006842F21071884208DD00200D490860F8
:103E20000B480068401C0A49086004E00948006823
:103E3000401C0849086008E002210848FCF7FCFE25
:103E400004210748FCF7F8FE00BF00BF10BD0000CA
:103E5000500000208000002058000020000C01408D
:103E60000010014010B523480068012802D0022844
:103E700034D11EE00020204908601E480068401C24
:103E80001C4908601D48006848B14FF480511C4827
:103E9000FCF7D4FE40211B48FCF7CEFE08E04FF4AF
:103EA00080511748FCF7C8FE40211648FCF7C6FEB3
:103EB00000BF1148006842F21071884208DD0020FE
:103EC0000D4908600B480068401C0A49086004E07E
:103ED00009480068401C0849086009E04FF4805117
:103EE0000748FCF7A9FE40210648FCF7A5FE00BFE5
:103EF00000BF10BD54000020840000205C000020A2
:103F0000000C01400010014070B59CB00024382125
:103F10000EA8FCF78BF90026342101A8FCF786F9DE
:103F2000B1208DF804000B4D00BF04E0295D01AA0B
:103F3000601C1154641C0E2CF8D30EAA01A90F208A
:103F4000FFF7C8FE0646F1B20EA8FDF701FB1CB054
:103F500070BD0000B801002010B5FCF7D5FE10BD03
:103F600010B540F27121042000F001F810BD70B5C9
:103F700004460D4645F25550FCF7DAFEE0B2FCF778
:103F8000CBFEA8B2FCF7CEFEFCF7BEFEFCF7B4FEFB
:103F900070BD000021F00042A2F16052B2F5801F16
:103FA00001F0004328BFD2F17F6C0BD95FEA001CFF
:103FB00043EAC20242EB507018BF704728BF20F09E
:103FC00001007047B2F5801FBCBF184670474FEA2A
:103FD000410C1CF5001F02D2084600F0EDBC70B584
:103FE00000F0FAFA00000089FFF7F6BF4FF000403A
:103FF000A0F580007047000010B591EA030F48BF9C
:1040000083F0004300F14483841A71EB030C05D262
:10401000121943EB0C03001B61EB0C01DFF824E1E8
:104020004FEA1154A4EB135C1EEA430F18BF9EEA3B
:10403000445F73D023EA0E03DCF1200E21EA045121
:1040400043F4801332D322FA0CFE10EB0E0023FA55
:104050000CFE41EB0E01CCF1200E03FA0EFE10EB2C
:104060000E0051F10001B1F5801FCCF1200E32D2CB
:1040700001EB045112FA0EF2BDE8104058BF704730
:10408000401C38BF5FEA420218BF7047002814BFC7
:1040900020F0010041F100014FEA410313F5001F38
:1040A00038BF7047A1F1C04100F0E4BA012A43EBE8
:1040B0000302ACF1200CDCF11F0E32BF4FF0000EFA
:1040C00023FA0CF310EB030041EB0451B4EB115F46
:1040D000D0D0A1EB045101F5801149085FEA30000E
:1040E00001EB04510ED350F1000038BF12FA0EFE5E
:1040F00008D1BDE81040C9E7401C38BF5FEA420262
:10410000CAD1C3E7BDE810404FEA410313F5001FD1
:1041100038BF7047A1F1C04100F0ACBA9EEA445FDD
:1041200008D011EA5E0FBDE8104004BF01F0004165
:1041300000207047BDE8104070B500F04DFA00BF98
:1041400064FBBE3E0000E0FF2DE9C04130B4DFF863
:10415000A0C23CEA111418BF3CEA131400F0EC8032
:1041600081EA03051CEA111444EAD57418BF1CEA5D
:10417000131500F0C780A4EB05044FF0004545EA95
:10418000C12145EAC32341EA505143EA525304F1A5
:104190007F74994204F500344FEAC0204FEAC222EE
:1041A00008BF904200F09C804FEA13650FF2401662
:1041B000765D4FEA134506FB05F7C7F1807706FBEE
:1041C00007F74FEAD737A7FB03687642C8F5803870
:1041D000A7FB06CE38BFA8F1010807FB08E64FF0A1
:1041E000000EA6FB028CE6FB03CEDCF1000CCEF148
:1041F000004E38BFAEF1010EA6FB0C584FF0000781
:104200004FF00005E6FB0E87A1FB08C6A0FB07CE1A
:1042100016EB0E0645F10005E1FB076515F1E04ED2
:104220007EBFA4F580345FEA46066D4116F1800733
:1042300045F100054FEA17274FEA066647EA05678A
:10424000A6F1DE46B6F1805F4FEA15251FD9384644
:1042500024F0010C05EBC471BCF1FE6F01EB0C11F5
:1042600002D8F0BCBDE8008124425CBF01F5801E8D
:104270009EEAC47F02D4F0BCBDE80081244238D459
:10428000F0BCA1F1C041BDE8004100F0F3B94FEA34
:10429000D22242EA43524FEAD323A7FB02864FEAD7
:1042A000D02040EA415007FB03661EEA0E0F4FEA9A
:1042B000D12105FB026658BFA6EB0056B6EB0056AF
:1042C0004FEA520E4EEAC37E18EB0E0E56EB530E1B
:1042D000BDD518EB02085E417F1C55F10005B6E71D
:1042E0004FF480154FF000074FF000064FF0000824
:1042F000ADE7F0BC4FF0000001F1C04101F000411A
:10430000BDE8008111EA0C1F0CEA131500D00CE087
:1043100013EA0C1F00F025804FF00000F0BC81EA8A
:10432000030101F00041BDE80081F0BCBDE800419F
:1043300081EA030100F09EB9F0BCBDE8004170B510
:1043400000F04AF9097EFC3E00F007B881EA03015B
:104350004FF0000001F00041704781EA030100F0D6
:1043600089B9F0BCBDE800414FF000002149704719
:10437000FFFDFBF9F7F5F4F2F0EEEDEBE9E8E6E42A
:10438000E3E1E0DEDDDBDAD8D7D5D4D3D1D0CFCDB1
:10439000CCCBCAC8C7C6C5C4C2C1C0BFBEBDBCBBEA
:1043A000BAB9B8B7B6B5B4B3B2B1B0AFAEADACABE5
:1043B000AAA9A8A8A7A6A5A4A3A3A2A1A09F9F9EBF
:1043C0009D9C9C9B9A999998979796959594939371
:1043D000929191908F8F8E8E8D8C8C8B8B8A898908
:1043E000888887878685858484838382828181808B
:1043F0000000FF070000F87F4FEA41034FEA5353E4
:10440000A3F58063D3F11E03C8BFD3F1210C0CDDEB
:104410004FF0004242EAC12242EA505232FA03FC13
:104420008CEAE17CACEBE1707047102BC4BF00203C
:10443000704703F5787CBCF1FF3F04D06FF0004279
:1044400082EA2100704770B500F0C6F849922480D6
:1044500000207047F2E710F0004248BF4042B0FA37
:1044600080F310FA03F10AD0C3F11D0303F5806352
:104470004FEA415002EB035202EBD12170474FF05B
:1044800000007047DFF848C170B51CEA111E1EBF5E
:104490001CEA13159EEA0C0F95EA0C0F00F06F80D2
:1044A00081EA030423EA4C134EEAD47E21EA4C113C
:1044B00041F4801143F48013AE44A1FB024CA0FBF5
:1044C0000365AEF17F7E361955EB0C05A1FB034C5D
:1044D0004CF10003A0FB021C16EB0C06654153F1E6
:1044E0000003094218BF46F0010613F4007F0BD108
:1044F0004FEA03314FEA0530340341EA155140EAEF
:1045000016506FF003020AE04FEAC3214FEAC520BC
:10451000F40241EA555140EA56506FF0020202EBB4
:104520002E4201EB025585EACE710AD05FEA440CB7
:1045300018BF24F0004450F1000041F1000120EACE
:10454000D47040F2FE7C624500D270BDA84214BF18
:104550004FF080444FF04044002E08BF0024BEF1CD
:10456000806FA8BFA1F1C041BDE8704080F2828099
:104570004FF0000001F1C04101F0004170479EEA98
:104580000C0F0CEA131518BF95EA0C0F06D04FF06C
:10459000000081EA030E0EF0004170BD00F01CF82F
:1045A0008900013E00F007B800F009B84FEA430C5B
:1045B0005FEA5C5C08D081EA030100F05BB84FEA77
:1045C000410C5FEA5C5CF6D14FF000000149704796
:1045D0000000FF070000F87F0EF1020E2EF0030E20
:1045E0005EF8046B364205D4012A43EB030515F54A
:1045F000001F12D8012841EB010C1CF5001F0CD83C
:104600000ED14FEAD17C15F5001F0CEB4C0C0CF1D0
:10461000020C08BF4CEBD37C04E04FF0080C01E027
:104620004FEAD37C0CEB4C0526FA05F606F007069C
:10463000B6F1040C06D20EEB860CBDE870404CF0CF
:10464000010C6047DFE80CF0090B02024FF000415B
:104650004FF00000A1F5002170BD19461046012859
:1046600051EB010418BFD4F5001484BF002001F001
:10467000004170BD0808A0F500114FEA31017047F4
:1046800010B591EA030F48BF83F000433FF5BCAC7F
:10469000841A71EB030C07D212198CF0004C43EB17
:1046A0000C03001B61EB0C01DFF8A4E14FEA11548D
:1046B000A4EB135C1EEA430F18BF9EEA445F00F0B0
:1046C000B08023EA6E03524221EA0451C3EB6E0329
:1046D00038BF5B1EDCF1200E25D322FA0CFE10EB56
:1046E0000E0043FA0CFE41EB0E01CCF1200E03FA52
:1046F0000EFE10EB0E0051F10001CCF1200E29D47A
:1047000012FA0EF201EB0451BDE8104058BF704799
:10471000401C1CBFB2F1004F704700280CBF491C61
:1047200020F00100704712EB020E43EB030218BFAA
:104730004FF0010E4EEA4202ACF1200CDCF11E0EED
:1047400054D943FA0CFE10EB0E0051F1FF31CCF1BD
:104750001E0ED5D50EF1010E12FA0EFE404141EBB0
:10476000010101EB445C5FEA5C5C10D910EBDE7088
:1047700001EB045138BFBEF1004FBDE8104018BF37
:10478000704700280CBF491C20F00100704730D250
:104790004FEAD42C11F5001124F400641BD0B1FAB7
:1047A00081F20B3AA41AA41ED2F12003914030FAF0
:1047B00003F31943904001EBCC71002C01EB045141
:1047C000BDE81040A8BF704701F1C0414FF00000A4
:1047D00001F000417047B0FA80F310FA03F100D104
:1047E00010BDE41A173C4805C90AE4E701EB04517F
:1047F00010BD491001EB0451BDE810404FEA3000F4
:1048000002E04FF0000170474A0008BF0042F8D0B4
:10481000B2F5001F28BF704701F000414FF00000C3
:1048200070479EEA445F07D011EA5E0FBDE8104072
:1048300004BF002100207047BDE8104070B5FFF7AD
:10484000CBFE00BF40DFF63E83F0004110467047CC
:104850000000E0FF401058BFC0F14040491058BF71
:10486000C1F140418142EFF30080704710F00041F8
:1048700048BF4042B0FA80F310FA03F2C3F19D033F
:104880000BD051EAC35101EB1220530638BF7047D9
:1048900000F1010008BF20F001007047B0FA80F37A
:1048A00010FA03F2C3F19D030AD0D90501EB1220DF
:1048B000530638BF704700F1010008BF20F0010027
:1048C0007047000050EA010C00F113801CF5000F46
:1048D00058BFBCF5000F01D48842704707D710F5C8
:1048E000000F58BF11F5000F15D488427047894258
:1048F00070471CF5000F04D5BCF5000FF7D58142B9
:1049000070474FF0807C1CEB400F38BF1CEB410F11
:1049100001D28142704710B500F008F89224490096
:104920004FF000504FF08051FFF794BF0EF1020E90
:104930002EF0030E5EF8044B244204D44FEA4102E9
:10494000B2F17F4F11D84FEA4003B3F17F4F0CD83B
:104950000ED14FEAD07CB2F17F4F0CEB4C0C0CF136
:10496000020C08BF4CEBD17C04E04FF0080C01E0D6
:104970004FEAD17C0CEB4C0324FA03F404F0070457
:10498000B4F1040C06D20EEB840CBDE810404CF0E0
:10499000010C6047DFE80CF0070802024FF000400E
:1049A000A0F5800010BD0846420018BFD2F1807209
:1049B00088BF00F0004010BDFF2141EAD050C00583
:1049C000704751EA000C00F113801CF5000F58BF2E
:1049D000BCF5000F01D48142704707D711F5000FD5
:1049E00058BF10F5000F15D48142704789427047B7
:1049F0001CF5000F04D5BCF5000FF7D588427047B1
:104A00004FF0807C1CEB410F38BF1CEB400F01D2F4
:104A10008842704780EA010081EA000180EA0100D3
:104A2000FFF779BF444A000800000020E8000000BA
:104A30008C0100082C4B0008E80000204007000013
:104A4000A8010008010000000000000000000000B4
:104A50000000000000000000000000000000000056
:104A60000000000000000000000000000000000046
:104A70000000000000000000000000000000000036
:104A80000000000000000000000000000000000026
:104A90000000000000000000000000000000000016
:104AA0000000000000000000000000000000000006
:104AB00000000000000000000000000000000000F6
:104AC00000000000000000000000000000000000E6
:104AD0000102030401020304060708090204060890
:104AE000FF000000000000000000000000000000C7
:104AF00000000000000000000000000000000000B6
:104B000000000000000000000000000000000000A5
:104B1000000000000000000000A24A0400000000A5
:0C4B200000000000010203040607080961
:04000005080001519D
:00000001FF
